:100000000C942A000C9447000C9447000C94470071
:100010000C9447000C9447000C9447000C94470044
:100020000C9447000C9447000C9447000C94470034
:100030000C9447000C9447000C9447000C94470024
:100040000C9447000C9447000C9447000C94470014
:100050000C94470011241FBECFE5D4E0DEBFCDBF16
:1000600010E0A0E6B0E0E4E0F1E002C005900D92FF
:10007000A036B107D9F720E0A0E6B0E001C01D929C
:10008000A036B207E1F70E9468000C9480000C943F
:100090000000009741F4089521503109E9F700006C
:1000A000019719F408955FEF4FEF252F342FF4CF08
:1000B0001BBA8FEF8ABB08958FE589B9599A539A75
:1000C00080B5866880BD08955D9BFECF8CB908958C
:1000D0000E9458000E945C0089E190E00E94490063
:1000E00082E30E94640083E30E94640083E30E9431
:1000F000640080E00E9464008AE00E946400ECCF0B
:04010000F894FFCFA1
:00000001FF
