:100000000C942A000C943F000C943F000C943F0089
:100010000C943F000C943F000C947E000C943F0025
:100020000C943F000C943F000C943F000C943F0054
:100030000C943F000C943F000C943F000C943F0044
:100040000C943F000C943F000C943F000C943F0034
:100050000C943F0011241FBECFE5D4E0DEBFCDBF1E
:1000600010E0A0E6B0E0E2EFF3E002C005900D92F0
:10007000A236B107D9F70E948D000C94F7010C94B9
:1000800000008D9A959889B7806189BF8FB580648B
:100090008FBD8EB58C608EBD80E091E09093610045
:1000A000809360001DBC1CBC0895CF92DF92EF923C
:1000B000FF926B017C012091600030916100442728
:1000C00037FD4095542F60E070E880E790E00E9493
:1000D000B601CA01B9010E94C700A70196010E949A
:1000E00053010E9499007BBD6ABDFF90EF90DF90A5
:1000F000CF9008958FEF8ABB1BBA08951F920F927D
:100100000FB60F9211248F938BB380958BBB8F9179
:100110000F900FBE0F901F9018950E947A000E94BA
:10012000410060E070E080E89FE30E945500789411
:10013000FFCF98D088F09F5790F0B92F9927B751EB
:10014000A0F0D1F0660F771F881F991F1AF0BA959B
:10015000C9F712C0B13081F09FD0B1E008959CC0C2
:10016000672F782F8827B85F39F0B93FCCF3869591
:1001700077956795B395D9F73EF4909580957095EE
:1001800061957F4F8F4F9F4F0895E89409C097FB6B
:100190003EF490958095709561957F4F8F4F9F4F5E
:1001A0009923A9F0F92F96E9BB279395F6958795A2
:1001B00077956795B795F111F8CFFAF4BB0F11F465
:1001C00060FF1BC06F5F7F4F8F4F9F4F16C088230C
:1001D00011F096E911C0772321F09EE8872F762F42
:1001E00005C0662371F096E8862F70E060E02AF083
:1001F0009A95660F771F881FDAF7880F969587956F
:1002000097F9089597F99F6780E870E060E0089596
:100210009FEF80EC089500240A941616170618061E
:100220000906089500240A941216130614060506FA
:100230000895092E0394000C11F4882352F0BB0F8B
:1002400040F4BF2B11F460FF04C06F5F7F4F8F4FEE
:100250009F4F089557FD9058440F551F59F05F3F29
:1002600071F04795880F97FB991F61F09F3F79F0D8
:1002700087950895121613061406551FF2CF46955A
:10028000F1DF08C0161617061806991FF1CF8695DC
:100290007105610508940895E894BB2766277727C0
:1002A000CB0197F908950BD0C4CFB5DF28F0BADFA2
:1002B00018F0952309F0A6CFABCF1124EECFCADFFB
:1002C000A0F3959FD1F3950F50E0551F629FF00169
:1002D000729FBB27F00DB11D639FAA27F00DB11DC2
:1002E000AA1F649F6627B00DA11D661F829F22274B
:1002F000B00DA11D621F739FB00DA11D621F839FD2
:10030000A00D611D221F749F3327A00D611D231FA7
:10031000849F600D211D822F762F6A2F11249F57F5
:1003200050408AF0E1F088234AF0EE0FFF1FBB1F18
:10033000661F771F881F91505040A9F79E3F5105B7
:1003400070F060CFAACF5F3FECF3983EDCF3869568
:1003500077956795B795F795E7959F5FC1F7FE2B62
:10036000880F911D9695879597F90895052E97FB0F
:100370001EF400940E94CD0157FD07D00E94D501C4
:1003800007FC03D04EF40C94CD0150954095309568
:1003900021953F4F4F4F5F4F0895909580957095F1
:1003A00061957F4F8F4F9F4F0895A1E21A2EAA1B90
:1003B000BB1BFD010DC0AA1FBB1FEE1FFF1FA21715
:1003C000B307E407F50720F0A21BB30BE40BF50B12
:1003D000661F771F881F991F1A9469F7609570959B
:1003E000809590959B01AC01BD01CF010895F894D3
:0203F000FFCF3D
:0203F200010008
:00000001FF
