:100000000C942A000C9447000C9447000C94470071
:100010000C9447000C9447000C9498000C944700F3
:100020000C94A3000C9447000C9447000C944700D8
:100030000C9447000C9447000C9447000C94470024
:100040000C9447000C9447000C9447000C94470014
:100050000C94470011241FBECFE5D4E0DEBFCDBF16
:1000600010E0A0E6B0E0E8E5F5E002C005900D92F2
:10007000A23EB107D9F720E0A2EEB0E001C01D9288
:10008000A43EB207E1F70E94D2000C94AA020C949D
:1000900000008D9A95981DBC1CBC89B7846189BFEE
:1000A0008FB582688FBD8EB58C618EBD80E091E08A
:1000B0009093E1008093E00008958F929F92AF9219
:1000C000BF92CF92DF92EF92FF924B015C016901E8
:1000D0007A012091E0003091E100442737FD4095FE
:1000E000542F60E070E880E790E00E946902CA0146
:1000F000B9010E947A01A50194010E940602A7019C
:1001000096010E94E4000E944C0177BD66BD81E02B
:1001100090E09BBD8ABDFF90EF90DF90CF90BF90A5
:10012000AF909F908F9008958FEF8ABB1BBA089570
:100130001F920F920FB60F9211241BBA0F900FBE91
:100140000F901F9018951F920F920FB60F921124C7
:100150008F939F93EF93FF938FEF8BBBE091E20020
:10016000F091E300E05AFF4F808190E09BBD8ABD93
:100170008091E2009091E30001968038910529F08A
:100180009093E3008093E20004C01092E300109289
:10019000E200FF91EF919F918F910F900FBE0F9012
:1001A0001F9018950E9494000E94490020E030E0C2
:1001B00040E053E460E070E080E090E40E945D0085
:1001C00078948FEF8BBBFFCF0CD0E6C0DED040F031
:1001D000D5D030F021F45F3F19F0C7C0511110C1E4
:1001E000CAC0EBD098F39923C9F35523B1F3951BFB
:1001F000550BBB27AA2762177307840738F09F5F48
:100200005F4F220F331F441FAA1FA9F333D00E2EB6
:100210003AF0E0E830D091505040E695001CCAF723
:1002200029D0FE2F27D0660F771F881FBB1F2617E8
:1002300037074807AB07B0E809F0BB0B802DBF01BB
:10024000FF2793585F4F2AF09E3F510568F08DC0FD
:10025000D7C05F3FECF3983EDCF3869577956795C2
:10026000B795F7959F5FC9F7880F911D969587956C
:1002700097F90895E1E0660F771F881FBB1F62178B
:1002800073078407BA0720F0621B730B840BBA0B49
:10029000EE1F88F7E095089598D088F09F5790F06A
:1002A000B92F9927B751A0F0D1F0660F771F881F9B
:1002B000991F1AF0BA95C9F712C0B13081F09FD0DA
:1002C000B1E008959CC0672F782F8827B85F39F078
:1002D000B93FCCF3869577956795B395D9F73EF4FA
:1002E00090958095709561957F4F8F4F9F4F0895A2
:1002F000E89409C097FB3EF49095809570956195C0
:100300007F4F8F4F9F4F9923A9F0F92F96E9BB2775
:100310009395F695879577956795B795F111F8CFF1
:10032000FAF4BB0F11F460FF1BC06F5F7F4F8F4F5C
:100330009F4F16C0882311F096E911C0772321F052
:100340009EE8872F762F05C0662371F096E8862FEA
:1003500070E060E02AF09A95660F771F881FDAF741
:10036000880F9695879597F9089597F99F6780E884
:1003700070E060E008959FEF80EC089500240A94F7
:100380001616170618060906089500240A94121670
:100390001306140605060895092E0394000C11F4A3
:1003A000882352F0BB0F40F4BF2B11F460FF04C050
:1003B0006F5F7F4F8F4F9F4F089557FD9058440FA9
:1003C000551F59F05F3F71F04795880F97FB991FB4
:1003D00061F09F3F79F08795089512161306140671
:1003E000551FF2CF4695F1DF08C0161617061806FE
:1003F000991FF1CF86957105610508940895E894D9
:10040000BB2766277727CB0197F908950BD0C4CF78
:10041000B5DF28F0BADF18F0952309F0A6CFABCFEF
:100420001124EECFCADFA0F3959FD1F3950F50E0D2
:10043000551F629FF001729FBB27F00DB11D639F96
:10044000AA27F00DB11DAA1F649F6627B00DA11D3C
:10045000661F829F2227B00DA11D621F739FB00DE2
:10046000A11D621F839FA00D611D221F749F332752
:10047000A00D611D231F849F600D211D822F762FEB
:100480006A2F11249F5750408AF0E1F088234AF0E8
:10049000EE0FFF1FBB1F661F771F881F9150504034
:1004A000A9F79E3F510570F060CFAACF5F3FECF3F4
:1004B000983EDCF3869577956795B795F795E79520
:1004C0009F5FC1F7FE2B880F911D9695879597F931
:1004D0000895052E97FB1EF400940E94800257FD9C
:1004E00007D00E94880207FC03D04EF40C948002CF
:1004F00050954095309521953F4F4F4F5F4F089550
:1005000090958095709561957F4F8F4F9F4F08957F
:10051000A1E21A2EAA1BBB1BFD010DC0AA1FBB1F07
:10052000EE1FFF1FA217B307E407F50720F0A21B79
:10053000B30BE40BF50B661F771F881F991F1A94E6
:1005400069F760957095809590959B01AC01BD0110
:08055000CF010895F894FFCFDC
:1005580080868C93999FA5ABB1B6BCC1C6CCD0D5CB
:10056800DADEE2E6E9EDF0F2F5F7F9FBFCFDFEFE76
:10057800FEFEFDFCFBFAF8F6F4F1EEEBE8E4E0DC55
:10058800D7D3CEC9C4BFB9B3AEA8A29C969089836D
:100598007D77706A645E58524D47413C37322D2949
:1005A80024201C1815120F0C0A0806050403020261
:1005B800020203040507090B0E1013171A1E222640
:1005C8002B3034393F444A4F555B61676D747A80EC
:0205D800010020
:00000001FF
