:100000000C9431000C94CD000C944E000C944E00D6
:100010000C944E000C944E000C944E000C944E0028
:100020000C94BE000C94B0000C944E000C944E0046
:100030000C944E000C944E000C944E000C944E0008
:100040000C944E000C944E000C944E000C94A600A0
:100050000C944E0043015D0177019101AB01C50194
:10006000DF0111241FBECFE5D4E0DEBFCDBF10E01D
:10007000A0E6B0E0E2E0F4E002C005900D92A43604
:10008000B107D9F720E0A4E6B0E001C01D92A73681
:10009000B207E1F70E94FD000C94FF010C940000F0
:1000A000611571058105910551F061507109810952
:1000B000910900006115710581059105B1F7089559
:1000C00089B7846089BF8EB584608EBD80E091E081
:1000D00090936300809362001DBC1CBC089589B797
:1000E000846089BF08951DBC1CBC89B78B7F89BF04
:1000F0000895BB9AC39812BE89B7836089BF83B73E
:10010000896783BF81E090E09093610080936000F5
:1001100008958A98929A85B7826085BF8BB780646C
:100120008BBF08958BB780648BBF08958BB78F7B8F
:100130008BBF089560E375E780E090E00E94500077
:1001400080B382FB882780F990E008951F920F9278
:100150000FB60F9211240F900FBE0F901F9018959D
:100160001F920F920FB60F9211248F9381E582BFD9
:100170008F910F900FBE0F901F9018951F920F92A6
:100180000FB60F9211248F9381E0809365008F91B9
:100190000F900FBE0F901F9018951F920F920FB6E1
:1001A0000F9211242F933F934F935F936F937F93FD
:1001B0008F939F93AF93BF93EF93FF930E949A0007
:1001C000892B51F480916600811104C081E08093F5
:1001D000640002C010926400FF91EF91BF91AF9153
:1001E0009F918F917F916F915F914F913F912F914F
:1001F0000F900FBE0F901F9018950E9479008FEFFF
:100200008CBF0E9460000E9473000E948900789455
:10021000CFEF0F2EF3EE8F2E99249A94F02D2224F7
:100220002394D5E900E71FEF0F2EF6E6AF2EFCEF83
:10023000BF2EF02D0F2EF5E03F2EF02D0F2EF0E308
:10024000CF2EFDEFDF2EF02D6894442442F80F2EC0
:10025000F0EEEF2EFEEFFF2EF02D0F2EF3E05F2ECF
:10026000F02D6894662461F80F2EF6E07F2EF02DB5
:100270008091660090E0FC0187309105E0F7E65D33
:10028000FF4F0C94F901CCBF0E9473000E949200B2
:100290008091640081110AC061E070E080E090E02C
:1002A0000E945000809164008823B1F31092640092
:1002B0000E94960070926600DBCFDCBF1DBD0CBDB6
:1002C0000E946F008091650081110AC061E070E0BA
:1002D00080E090E00E945000809165008823B1F397
:1002E000109265000E94730060926600C1CFCCBF7F
:1002F000FDBCECBC0E946F008091650081110AC0BA
:1003000061E070E080E090E00E9450008091650024
:100310008823B1F3109265000E947300509266002A
:10032000A7CFDCBFDDBCCCBC0E946F008091650014
:1003300081110AC061E070E080E090E00E9450000E
:10034000809165008823B1F3109265000E947300CC
:10035000409266008DCFCCBFBDBCACBC0E946F008C
:100360008091650081110AC061E070E080E090E05A
:100370000E945000809165008823B1F310926500BF
:100380000E9473003092660073CFDCBF1DBD0CBDB0
:100390000E946F008091650081110AC061E070E0E9
:1003A00080E090E00E945000809165008823B1F3C6
:1003B000109265000E9473001092660059CFCCBF66
:1003C0009DBC8CBC0E946F008091650081110AC0A9
:1003D00061E070E080E090E00E9450008091650054
:1003E0008823B1F3109265000E947300209266008A
:1003F0003FCFEE0FFF1F0590F491E02D0994F89484
:02040000FFCF2C
:0404020001000100F4
:00000001FF
