:100000000C9431000C94D7000C944E000C944E00CC
:100010000C944E000C944E000C944E000C944E0028
:100020000C94C8000C94BA000C944E000C944E0032
:100030000C944E000C944E000C944E000C944E0008
:100040000C944E000C944E000C944E000C94B00096
:100050000C944E0044015E0179019301AE01C80188
:10006000E30111241FBECFE5D4E0DEBFCDBF10E019
:10007000A0E6B0E0EAE0F4E002C005900D92A436FC
:10008000B107D9F720E0A4E6B0E001C01D92A73681
:10009000B207E1F70E9407010C9403020C940000E0
:1000A000611571058105910551F061507109810952
:1000B000910900006115710581059105B1F7089559
:1000C00089B7846089BF8EB584608EBD80E091E081
:1000D00090936300809362001DBC1CBC089589B797
:1000E000846089BF08951DBC1CBC89B78B7F89BF04
:1000F0000895BB9AC39812BE89B7836089BF83B73E
:10010000896783BF81E090E09093610080936000F5
:10011000089583B7896783BF81E090E09093610081
:100120008093600008958A98929A85B7826085BF0F
:100130008BB780648BBF08958BB780648BBF0895A5
:100140008BB78F7B8BBF089560E375E780E090E00D
:100150000E94500080B382FB882780F990E00895C8
:100160001F920F920FB60F9211240F900FBE0F9097
:100170001F9018951F920F920FB60F9211248F9314
:1001800081E582BF8F910F900FBE0F901F90189541
:100190001F920F920FB60F9211248F9381E08093DC
:1001A00065008F910F900FBE0F901F9018951F92B2
:1001B0000F920FB60F9211242F933F934F935F939B
:1001C0006F937F938F939F93AF93BF93EF93FF931F
:1001D0000E94A400892B51F480916600811104C013
:1001E00081E08093640002C010926400FF91EF915F
:1001F000BF91AF919F918F917F916F915F914F913F
:100200003F912F910F900FBE0F901F9018950E9455
:10021000790081EC8CBF0E9460000E9473000E94F4
:10022000930013BE78940F2EF3EEAF2EBB24BA9436
:10023000F02D99249394C0E7DFEF0F2EF6E6CF2E32
:10024000FCEFDF2EF02D0F2EF5E05F2EF02D0F2EA0
:10025000F0E3EF2EFDEFFF2EF02D6894662462F898
:1002600000EE1EEF0F2EF3E07F2EF02D6894882411
:1002700081F88091660090E0FC0187309105E0F7FD
:10028000E65DFF4F0C94FD0113BE0E9473000E94B7
:100290009C008091640081110AC061E070E080E000
:1002A00090E00E945000809164008823B1F3109286
:1002B00064000E94A00090926600DBCFDDBDCCBD43
:1002C0000E9489000E946F008091650081110AC020
:1002D00061E070E080E090E00E9450008091650055
:1002E0008823B1F3109265000E947300809266002B
:1002F000C0CF1DBD0CBD13BE0E946F008091650074
:1003000081110AC061E070E080E090E00E9450003E
:10031000809165008823B1F3109265000E947300FC
:1003200070926600A6CFFDBCECBC0E9489000E94C2
:100330006F008091650081110AC061E070E080E08B
:1003400090E00E945000809165008823B1F31092E4
:1003500065000E947300609266008BCFDDBCCCBC50
:1003600013BE0E946F008091650081110AC061E098
:1003700070E080E090E00E9450008091650088234A
:10038000B1F3109265000E9473005092660071CF25
:10039000DDBDCCBD0E9489000E946F008091650088
:1003A00081110AC061E070E080E090E00E9450009E
:1003B000809165008823B1F3109265000E9473005C
:1003C0001092660056CFBDBCACBC13BE0E946F003D
:1003D0008091650081110AC061E070E080E090E0EA
:1003E0000E945000809165008823B1F3109265004F
:1003F0000E947300909266003CCFEE0FFF1F0590A5
:0A040000F491E02D0994F894FFCF69
:04040A0001000100EC
:00000001FF
