:100000000C942A000C943E010C9447000C94470079
:100010000C9447000C9447000C9447000C94470044
:100020000C9447000C9447000C9447000C94470034
:100030000C9447000C9447000C9447000C94470024
:100040000C9447000C9447000C9447000C94470014
:100050000C94470011241FBECFE5D4E0DEBFCDBF16
:1000600010E0A0E6B0E0E2EAF6E002C005900D92F2
:10007000AA37B107D9F720E0AAE7B0E001C01D9286
:10008000AC37B207E1F70E946E010C944F030C9459
:100090000000611571058105910551F061507109EC
:1000A0008109910900006115710581059105B1F77C
:1000B00008958EB5867F8EBD1DBC1CBC08958FEF44
:1000C00087BB18BA0895C39A87E08A95F1F700C0F4
:1000D000C39880E38A95F1F700000895CF93DF93EA
:1000E000EC0181E090E090937900809378001C16F9
:1000F0001D067CF40E946300209178003091790005
:100100002F5F3F4F3093790020937800C217D307B9
:100110008CF7DF91CF910895803D27E092078CF412
:10012000BC01990F880B990B0E949B022BE237E8C8
:1001300042ED51E40E94F1010E946302CB01099754
:100140000895BC01990F880B990B0E949B022BE22A
:1001500037E842ED51E40E94F1010E946302CB01B5
:10016000059708959C01843F41E094076CF46AE090
:1001700070E00E9427036C5E7F4F072E000C880BF7
:10018000990B0E949B020895845F9140843F9140A7
:1001900070F4C9016AE070E00E942703655F7F4F39
:1001A000072E000C880B990B0E949B020895C90131
:1001B000885E9340843F914070F4C9016AE070E02A
:1001C0000E9427036D5F7F4F072E000C880B990B51
:1001D0000E949B020895C9016AE070E00E94270313
:1001E000FB01C90168E770E00E942703CF01861B6D
:1001F000970BBC01072E000C880B990B0E949B02E9
:10020000089521E030E030937900209378001816AB
:1002100019068CF428E12A95F1F700C020917800A6
:10022000309179002F5F3F4F309379002093780011
:10023000821793077CF7089583B78E7E83BF12BE23
:1002400008958A98929A85B7826085BF8BB780643B
:100250008BBF08958BB780648BBF08958BB78F7B5E
:100260008BBF089560E375E780E090E00E9449004D
:1002700080B382FB882780F990E008951F920F9247
:100280000FB60F9211242F933F934F935F936F9369
:100290007F938F939F93AF93BF93EF93FF930E94AE
:1002A0003201892B51F480917B00811104C081E0DF
:1002B00080937A0002C010927A00FF91EF91BF9173
:1002C000AF919F918F917F916F915F914F913F91EE
:1002D0002F910F900FBE0F901F901895CF93DF9323
:1002E000CDB7DEB7A0970FB6F894DEBF0FBECDBF77
:1002F0000E945F000E9421017894CE010D969A8F92
:10030000898FFE013196FC8FEB8F0F2EF8E74F2E71
:10031000F0E05F2EF02DFB8DFD8F8C8D8E8F998DF3
:100320009F8FEA8DE8A31E01F9E12F0E311C0E9478
:100330001C010E9459000E942A0180917A008111BB
:100340000AC061E070E080E090E00E944900809186
:100350007A008823B1F310927A000E942E018FEF69
:100360008BBB0F2EFCE6EF2EF0E0FF2EF02D8E0162
:10037000035F1F4F0F2EF0E68F2EF0E09F2EF02D23
:10038000FE0131963F01AD8CBE8CCF8CD8A0F70119
:10039000819191917F010E948C00F601819391934C
:1003A0006F01F401819191914F010E94B2000E946E
:1003B0006302F501619371935F01E414F50439F769
:1003C000F801819191918F010E946E00F30181915A
:1003D00091913F010E9401010215130589F71BBA93
:1003E000A6CF0E9405020C94ED020E94E60258F08E
:1003F0000E94DF0240F029F45F3F29F00C94D602FE
:1004000051110C9421030C94DC020E94FE0268F34B
:100410009923B1F3552391F3951B550BBB27AA27BD
:1004200062177307840738F09F5F5F4F220F331FF7
:10043000441FAA1FA9F335D00E2E3AF0E0E832D0BF
:1004400091505040E695001CCAF72BD0FE2F29D0C2
:10045000660F771F881FBB1F261737074807AB0794
:10046000B0E809F0BB0B802DBF01FF2793585F4F09
:100470003AF09E3F510578F00C94D6020C9421037B
:100480005F3FE4F3983ED4F3869577956795B795EB
:10049000F7959F5FC9F7880F911D9695879597F9F6
:1004A0000895E1E0660F771F881FBB1F621773076F
:1004B0008407BA0720F0621B730B840BBA0BEE1F84
:1004C00088F7E09508950E946A026894B1110C942F
:1004D000210308950E94060388F09F5798F0B92FD2
:1004E0009927B751B0F0E1F0660F771F881F991F69
:1004F0001AF0BA95C9F714C0B13091F00E942003E8
:10050000B1E008950C942003672F782F8827B85FF7
:1005100039F0B93FCCF3869577956795B395D9F7C0
:100520003EF490958095709561957F4F8F4F9F4FCA
:100530000895E89409C097FB3EF4909580957095D6
:1005400061957F4F8F4F9F4F9923A9F0F92F96E91F
:10055000BB279395F695879577956795B795F11194
:10056000F8CFFAF4BB0F11F460FF1BC06F5F7F4F31
:100570008F4F9F4F16C0882311F096E911C0772343
:1005800021F09EE8872F762F05C0662371F096E84C
:10059000862F70E060E02AF09A95660F771F881F1B
:1005A000DAF7880F9695879597F9089597F99F67D9
:1005B00080E870E060E008959FEF80EC08950024EB
:1005C0000A941616170618060906089500240A94B8
:1005D00012161306140605060895092E0394000C3E
:1005E00011F4882352F0BB0F40F4BF2B11F460FFCD
:1005F00004C06F5F7F4F8F4F9F4F089557FD9058F6
:10060000440F551F59F05F3F71F04795880F97FBD6
:10061000991F61F09F3F79F0879508951216130690
:100620001406551FF2CF4695F1DF08C016161706BF
:100630001806991FF1CF86957105610508940895F4
:10064000E894BB2766277727CB0197F9089597FB96
:10065000072E16F4009407D077FD09D00E943B03C3
:1006600007FC05D03EF4909581959F4F08957095B5
:1006700061957F4F0895AA1BBB1B51E107C0AA1FBC
:10068000BB1FA617B70710F0A61BB70B881F991F33
:100690005A95A9F780959095BC01CD010895F894DD
:0206A000FFCF8A
:1006A200B80B8813BC02140560098813EA01120210
:0A06B200000400081D090002010009
:00000001FF
