S011000049525F73656E6465722E7372656398
S11300000C9431000C94F1000C944E000C944E00AE
S11300100C944E000C944E000C944E000C944E0024
S11300200C94CA000C94C0000C944E000C944E0026
S11300300C944E000C944E000C944E000C944E0004
S11300400C944E000C944E000C944E000C944E00F4
S11300500C944E005D0178019101AA01C301DC01F9
S1130060F50111241FBECFE5D4E0DEBFCDBF10E003
S1130070A0E6B0E0ECE2F4E002C005900D92A436F4
S1130080B107D9F720E0A4E6B0E001C01D92A7367D
S1130090B207E1F70E9421010C9414020C940000B1
S11300A0611571058105910551F06150710981094E
S11300B0910900006115710581059105B1F7089555
S11300C089B7846089BF8EB584608EBD80E091E07D
S11300D090936300809362001DBC1CBC08958EB590
S11300E084608EBD08958EB58B7F8EBD1DBC1CBCF7
S11300F00895BB9AC39812BE89B7816089BF83B73C
S1130100896183BF81E090E09093610080936000F7
S113011080E68CBF089583B7896183BF81E090E056
S1130120909361008093600012BE80E68CBF0895B6
S113013083B7867E83BF81E090E0909361008093D3
S1130140600012BE08958A98929A85B7826085BF2E
S11301508BB780648BBF08958BB780648BBF089581
S11301608BB78F7B8BBF089560E375E780E090E0E9
S11301700E94500080B382FB882780F990E00895A4
S11301801F920F920FB60F9211240F900FBE0F9073
S11301901F9018951F920F920FB60F9211242F9350
S11301A03F934F935F936F937F938F939F93AF93FB
S11301B0BF93EF93FF930E94730081E080936500E7
S11301C0FF91EF91BF91AF919F918F917F916F912B
S11301D05F914F913F912F910F900FBE0F901F9001
S11301E018951F920F920FB60F9211242F933F93DD
S11301F04F935F936F937F938F939F93AF93BF932B
S1130200EF93FF930E94B400892B51F48091660010
S1130210811104C081E08093640002C010926400E4
S1130220FF91EF91BF91AF919F918F917F916F91CA
S11302305F914F913F912F910F900FBE0F901F90A0
S113024018950E9479000E9460000E9473000E9429
S1130250A3000E94980078940F2EF3EEAF2EBB24D7
S1130260BA94F02D99249394C0E7DFEF0F2EF6E6AD
S1130270CF2EFCEFDF2EF02D0F2EF5E05F2EF02DAC
S11302800F2EF0E3EF2EFDEFFF2EF02D6894662481
S113029062F800EE1EEF0F2EF3E07F2EF02D68942F
S11302A0882481F88091660090E0FC0187309105F4
S11302B0E0F7E65DFF4F0C940E020E9498000E9446
S11302C073000E94AC008091640081110AC061E057
S11302D070E080E090E00E945000809164008823E8
S11302E0B1F3109264000E94B00090926600DACFDD
S11302F0DDBDCCBD0E948B000E946F008091650023
S113030081110AC061E070E080E090E00E9450003A
S1130310809165008823B1F3109265008092660095
S1130320C1CF1DBD0CBD0E9498000E946F0080913A
S1130330650081110AC061E070E080E090E00E94F5
S11303405000809165008823B1F31092650070928B
S11303506600A8CFFDBCECBC0E948B000E946F001D
S11303608091650081110AC061E070E080E090E056
S11303700E945000809165008823B1F310926500BB
S1130380609266008FCFDDBCCCBC0E9498000E94B6
S11303906F008091650081110AC061E070E080E027
S11303A090E00E945000809165008823B1F3109280
S11303B065005092660076CFDDBDCCBD0E948B00F7
S11303C00E946F008091650081110AC061E070E0B5
S11303D080E090E00E945000809165008823B1F392
S11303E010926500109266005DCFBDBCACBC0E944B
S11303F098000E946F008091650081110AC061E03D
S113040070E080E090E00E945000809165008823B5
S1130410B1F3109265009092660044CFEE0FFF1F77
S10F04200590F491E02D0994F894FFCFAE
S107042C01000100C6
S9030000FC
