:100000000C942A000C9479000C9447000C9447003F
:100010000C9447000C9447000C9447000C94470044
:100020000C9447000C9447000C9447000C94470034
:100030000C9447000C9447000C9447000C94470024
:100040000C9447000C9447000C9447000C94470014
:100050000C94470011241FBECFE5D4E0DEBFCDBF16
:1000600010E0A0E6B0E0E6E5F1E002C005900D92F8
:10007000A036B107D9F720E0A0E6B0E001C01D929C
:10008000A036B207E1F70E949D000C94A9000C94E1
:100090000000611571058105910551F061507109EC
:1000A0008109910900006115710581059105B1F77C
:1000B00008958A98929A85B7826085BF8BB78064CD
:1000C0008BBF08958FEF8ABB1BBA089560E67AEE66
:1000D00080E090E00E944900829904C08BB3809533
:1000E0008BBB08956AE070E080E090E00E944900D8
:1000F00008951F920F920FB60F9211242F933F93E2
:100100004F935F936F937F938F939F93AF93BF931F
:10011000EF93FF930E946600FF91EF91BF91AF9123
:100120009F918F917F916F915F914F913F912F910F
:100130000F900FBE0F901F9018950E9462000E94B2
:10014000590078946AE070E080E090E00E944900F5
:06015000F9CFF894FFCF87
:00000001FF
