S0150000504C414E425F4C4344313630322E73726563A7
S11300000C942A000C943F000C943F000C943F0085
S11300100C943F000C943F000C943F000C943F0060
S11300200C943F000C943F000C943F000C943F0050
S11300300C943F000C943F000C943F000C943F0040
S11300400C943F000C943F000C943F000C943F0030
S11300500C943F0011241FBECFE5D4E0DEBFCDBF1A
S113006010E0A0E6B0E0E2E2F2E002C005900D92FA
S1130070A038B107D9F70E94E2000C940F010C9448
S11300800000611571058105910551F061507109F8
S11300908109910900006115710581059105B1F788
S11300A00895009741F4089521503109E9F70000BB
S11300B0019719F408955FEF4FEF252F342FF4CFF4
S11300C0D898D99A17BADA9A6AE070E080E090E09A
S11300D00E944100B799FECFDA988FEF87BB08954D
S11300E0CF93C82F0E946000D898D998C8BBDA9AD9
S11300F0DA98CF910895CF93C82F0E946000D89AC0
S1130100D998C8BBDA9ADA98CF9108958FEF87BB54
S11301108AB387608ABB81E00E9470006FE070E060
S113012080E090E00E94410086E00E9470006FE051
S113013070E080E090E00E9441008CE00E9470003A
S11301406FE070E080E090E00E94410088E30E944C
S113015070006FE070E080E090E00E94410008953C
S11301600F931F93CF93DF938A01611104C08068BA
S11301700E94700013C0613089F4806C0E9470008A
S11301800DC00E947B0083E090E00E945100C017E4
S1130190D10799F089918111F4CF0FC0F8018081C2
S11301A0882359F00E947B0083E090E00E94510074
S11301B0E8012196005F1F4FEDCFDF91CF911F9192
S11301C00F910895CF93DF93CDB7DEB7A0970FB605
S11301D0F894DEBF0FBECDBF0E94860080E1E0E64A
S11301E0F0E0DE01519601900D928A95E1F780E1ED
S11301F0E0E7F0E0DE01119601900D928A95E1F7B7
S1130200AE014F5E5F4F60E080E00E94B000AE013F
S11302104F5F5F4F61E080E00E94B000F1CFF8943F
S1050220FFCF0A
S11302222E2E2EA7C5C02E2E2E20202020202020A8
S1130232BD2E2E2EB72E2E2E202020202020202030
S9030000FC
