S0130000504C414E425F46494E414C2E73726563DB
S11300000C942A000C9447000C9447000C9447006D
S11300100C9447000C9447000C9447000C94470040
S11300200C9447000C9447000C9447000C94470030
S11300300C9447000C9447000C9447000C94470020
S11300400C9447000C9447000C9447000C94470010
S11300500C94470011241FBECFE5D4E0DEBFCDBF12
S113006010E0A0E6B0E0E6EAF2E002C005900D92EE
S1130070A03EB107D9F720E0A0EEB0E001C01D9288
S1130080A13EB207E1F70E9491000C9451010C9437
S11300900000009741F4089521503109E9F7000068
S11300A0019719F408955FEF4FEF252F342FF4CF04
S11300B01BBA8FEF8ABB08958FE589B9599A8AB123
S11300C088668AB980B5866880BD08955D9BFECF39
S11300D08CB90895EF92FF920F931F93CF93DF9300
S11300E0EC017B018A018881882331F021960E94EA
S11300F0660089918111FBCFEF2811F4000003C041
S11301008DE00E946600012B11F4000003C08AE018
S11301100E946600DF91CF911F910F91FF90EF90A5
S113012008950E9458000E945C00CFEF0F2EF3E068
S1130130EF2EF02D0F2EF5E0FF2EF02D04E011E050
S1130140D2E08091E0008230C9F128F4882361F084
S11301508130F9F087C0843009F45AC008F443C0F0
S1130160853009F46AC07EC041E050E061E070E08F
S11301708FE790E00E946A00CBBB84E090E00E948D
S113018049001BBA84E090E00E9449001093E0000B
S1130190D8CF41E050E061E070E080E690E00E945A
S11301A06A00CBBB84E090E00E9449001BBA84E063
S11301B090E00E944900D093E000C3CF41E050E0BA
S11301C061E070E085E790E00E946A00CBBB84E0C8
S11301D090E00E9449001BBA84E090E00E9449002C
S11301E0E092E000AECF41E050E061E070E08AE8E8
S11301F090E00E946A00CBBB84E090E00E9449003A
S11302001BBA84E090E00E9449000093E00099CF7B
S113021041E050E061E070E089EA90E00E946A0009
S1130220CBBB84E090E00E9449001BBA84E090E0DC
S11302300E944900F092E00084CF41E050E061E088
S113024070E08EEB90E00E946A00CBBB84E090E00B
S11302500E9449001BBA84E090E00E944900109279
S1130260E0006FCF41E050E061E070E082ED90E0AB
S11302700E946A00CBBB81E090E00E9449001BBA57
S113028081E090E00E944900CBBB81E090E00E94B5
S113029049001BBA81E090E00E9449001092E000FE
S10902A050CFF894FFCFDB
S11302A64F4620434F555253452049204C4F5645FF
S11302B620594F5500492050524F4D495345204926
S11302C6204C4F564520594F5500594F5520415201
S11302D64520444546494E4954454C59204D5920DC
S11302E65052494E43455353004D5541204C4F56A9
S11302F64520594F5520464F5245564552004920F0
S11303064D49535320594F5520455645525944415A
S113031659004552524F5220415050454152000017
S9030000FC
