:100000000C942A000C9447000C9447000C94470071
:100010000C9447000C94B2000C9447000C944700D9
:100020000C9447000C9447000C9447000C94470034
:100030000C9447000C9447000C9447000C94470024
:100040000C9447000C9447000C9447000C94470014
:100050000C94470011241FBECFE5D4E0DEBFCDBF16
:1000600010E0A0E6B0E0E8EFF4E002C005900D92E9
:10007000A236B107D9F720E0A2E6B0E001C01D9298
:10008000A737B207E1F70E94DF000C947A020C94C4
:100090000000611571058105910551F061507109EC
:1000A0008109910900006115710581059105B1F77C
:1000B0000895009741F4089521503109E9F70000AF
:1000C000019719F408955FEF4FEF252F342FF4CFE8
:1000D0001BBA8FEF8ABB08958EB580648EBD88B73A
:1000E000806288BF08958EB58F7B8EBD88B7806291
:1000F00088BF08958E98C39A99B7906299BF9EB5AC
:1001000094689EBD20E031E0309361002093600050
:100110001DBC1CBC811103C00E94730008950E9485
:100120006C000895811104C00E946C0081E0089564
:100130000E94730080E0089586B597B59093700093
:1001400080936F002091710030917200AC01421BCE
:10015000530B50936E0040936D0090937200809308
:10016000710008951F920F920FB60F9211242F93D2
:100170003F934F935F936F937F938F939F93AF932F
:10018000BF93EF93FF930E949C00809176000E94A2
:1001900092008093760081E080937500FF91EF914B
:1001A000BF91AF919F918F917F916F915F914F918F
:1001B0003F912F910F900FBE0F901F9018950E94A6
:1001C00068001BBA80E00E947A007894C3E6D0E011
:1001D00080917500811107C061E070E080E090E0DF
:1001E0000E94490023C010927500809173008F5FB8
:1001F0008093730060916D0070916E0080E090E0DC
:100200000E94EC0126E636E646EE51E40E944B01E0
:100210000E94BD016093740080916200E82FF0E0BD
:10022000ED59FF4F60838F5F809362008091730070
:10023000863070F289E190E00E94590088818BBB82
:1002400089E190E00E94590089818BBB89E190E0AF
:100250000E9459008A818BBB89E190E00E9459007D
:100260008B818BBB89E190E00E9459008C818BBB14
:1002700089E190E00E9459008D818BBB89E190E07B
:100280000E9459008E818BBB89E190E00E94590049
:100290008F818BBB9DCF0E945F010C9440020E9416
:1002A000390258F00E94320240F029F45F3F29F0F1
:1002B0000C94290251110C9474020C942F020E9488
:1002C000510268F39923B1F3552391F3951B550B14
:1002D000BB27AA2762177307840738F09F5F5F4F19
:1002E000220F331F441FAA1FA9F335D00E2E3AF058
:1002F000E0E832D091505040E695001CCAF72BD070
:10030000FE2F29D0660F771F881FBB1F26173707C0
:100310004807AB07B0E809F0BB0B802DBF01FF27F2
:1003200093585F4F3AF09E3F510578F00C942902A4
:100330000C9474025F3FE4F3983ED4F3869577956E
:100340006795B795F7959F5FC9F7880F911D9695AB
:10035000879597F90895E1E0660F771F881FBB1F07
:10036000621773078407BA0720F0621B730B840BB4
:10037000BA0BEE1F88F7E09508950E94590288F0A5
:100380009F5798F0B92F9927B751B0F0E1F0660F59
:10039000771F881F991F1AF0BA95C9F714C0B1309A
:1003A00091F00E947302B1E008950C947302672FDC
:1003B000782F8827B85F39F0B93FCCF386957795C9
:1003C0006795B395D9F73EF49095809570956195B2
:1003D0007F4F8F4F9F4F0895E89409C097FB3EF4DD
:1003E00090958095709561957F4F8F4F9F4F992382
:1003F000A9F0F92F96E9BB279395F6958795779500
:100400006795B795F111F8CFFAF4BB0F11F460FFBF
:100410001BC06F5F7F4F8F4F9F4F16C0882311F017
:1004200096E911C0772321F09EE8872F762F05C02B
:10043000662371F096E8862F70E060E02AF09A95C6
:10044000660F771F881FDAF7880F9695879597F9BB
:10045000089597F99F6780E870E060E008959FEF46
:1004600080EC089500240A9416161706180609064B
:10047000089500240A94121613061406050608951A
:10048000092E0394000C11F4882352F0BB0F40F4A2
:10049000BF2B11F460FF04C06F5F7F4F8F4F9F4FE2
:1004A000089557FD9058440F551F59F05F3F71F064
:1004B0004795880F97FB991F61F09F3F79F08795CB
:1004C0000895121613061406551FF2CF4695F1DF54
:1004D00008C0161617061806991FF1CF86957105E4
:1004E000610508940895E894BB2766277727CB0118
:0804F00097F90895F894FFCF7D
:0204F800010001
:00000001FF
