S0100000504C414E425F494F2E73726563B0
S11300000C942A000C943F000C943F000C943F0085
S11300100C943F000C943F000C943F000C943F0060
S11300200C943F000C943F000C943F000C943F0050
S11300300C943F000C943F000C943F000C943F0040
S11300400C943F000C943F000C943F000C943F0030
S11300500C943F0011241FBECFE5D4E0DEBFCDBF1A
S113006010E0A0E6B0E0E4ECF0E002C005900D92F0
S1130070A036B107D9F70E9454000C9460000C9488
S11300800000009741F4089521503109E9F7000078
S1130090019719F408955FEF4FEF252F342FF4CF14
S11300A01BBA8FEF8ABB08950E94500081E08BBB7E
S11300B085E090E00E9441008BB38F5F8BBBF8CF4B
S10700C0F894FFCFDE
S9030000FC
