S01B0000504C414E425F55534152545F524543454956452E737265634C
S11300000C942A000C9447000C9447000C9447006D
S11300100C9447000C9447000C9447000C94470040
S11300200C9447000C9447000C9447000C94660110
S11300300C943E010C9416010C9447000C94470058
S11300400C9447000C9447000C9447000C94470010
S11300500C94470011241FBECFE5D4E0DEBFCDBF12
S113006010E0A0E6B0E0E4E0F4E002C005900D92F8
S1130070A837B107D9F720E0A8E7B0E001C01D9286
S1130080AD39B207E1F70E94BC010C9400020C9454
S11300900000611571058105910551F061507109E8
S11300A08109910900006115710581059105B1F778
S11300B00895D898D99A17BADA9A6AE070E080E07D
S11300C090E00E944900B799FECFDA988FEF87BB82
S11300D00895CF93C82F0E945900D898D998C8BBC7
S11300E0DA9ADA98CF910895CF93C82F0E945900D5
S11300F0D89AD998C8BBDA9ADA98CF9108958FEF35
S113010087BB8AB387608ABB81E00E9469006FE085
S113011070E080E090E00E94490086E00E9469005F
S11301206FE070E080E090E00E9449008CE00E9463
S113013069006FE070E080E090E00E94490088E38D
S11301400E9469006FE070E080E090E00E94490046
S1130150089581E00E94690065E070E080E090E02D
S11301600E94490008951F93CF93DF93EA01611120
S113017004C080680E9469000EC0613061F4806C24
S11301800E94690008C00E947400115061F08991B6
S11301908111F9CF08C08881882329F00E94740056
S11301A021961FE0F4CFDF91CF911F9108958FE541
S11301B089B9599A8AB188668AB980B5866880BD3A
S11301C008958FE589B9599A8AB180698AB980B549
S11301D0866880BD08955D9BFECF8CB90895EF922B
S11301E0FF920F931F93CF93DF93EC017B018A015E
S11301F08881882331F021960E94EB008991811136
S1130200FBCFEF2811F4000003C08DE00E94EB0047
S1130210012B11F4000003C08AE00E94EB00DF917F
S1130220CF911F910F91FF90EF9008951F920F921D
S11302300FB60F9211242F933F934F935F936F93B5
S11302407F938F939F93AF93BF93EF93FF9361E05B
S113025070E080E090E00E944900FF91EF91BF912F
S1130260AF919F918F917F916F915F914F913F914A
S11302702F910F900FBE0F901F9018951F920F9201
S11302800FB60F9211242F933F934F935F936F9365
S11302907F938F939F93AF93BF93EF93FF9361E00B
S11302A070E080E090E00E944900FF91EF91BF91DF
S11302B0AF919F918F917F916F915F914F913F91FA
S11302C02F910F900FBE0F901F9018951F920F92B1
S11302D00FB60F9211242F938F939F93EF93FF9355
S11302E08091790081110CC0E0917A00F0E08CB12A
S11302F0E457FF4F8083118281E0809378000BC024
S1130300E0917A00F0E08CB1E558FF4F80831182D0
S113031081E08093780080917A008F5F80937A00E7
S1130320803100F1809179008F5F80937900109281
S11303307A00813051F4EBE7F0E08BE890E020E2C2
S11303402193E817F907E1F70DC0823058F01092B5
S11303507900ECE8F0E08CE990E020E22193E817E2
S1130360F907E1F7FF91EF919F918F912F910F90F2
S11303700FBE0F901F9018950E94E1000E94D700B5
S11303800E947F0040E650E060E080E00E94B300FD
S1130390789480917800882319F0813041F02DC041
S11303A06AE070E080E090E00E944900F2CF0E9491
S11303B0A90041E750E060E080E00E94B30041E71B
S11303C050E061E080E00E94B300809179008111E7
S11303D009C041E050E061E070E081E790E00E94F4
S11303E0EF0008C041E050E061E070E081E790E098
S11303F00E94EF0010927800CCCF10927800C9CF01
S1070400F894FFCF9A
S113040457414954494E4720544845204441544196
S10B0414004E4F20574159002E
S9030000FC
